:020000040000FA
:100000000C9459000C9481000C9481000C94810094
:100010000C9481000C9481000C9481000C9481005C
:100020000C9481000C9481000C9481000C9481004C
:100030000C9481000C9481000C9481000C9481003C
:100040000C948F070C9481000C945D070C94370777
:100050000C9481000C9481000C9481000C9481001C
:100060000C94D9070C9481000000000025002800A2
:100070002B00040404040404040402020202020229
:10008000030303030303010204081020408001025C
:1000900004081020010204081020000000080002DB
:1000A0000100000304070000000000000000F80841
:1000B000D60A11241FBECFEFD8E0DEBFCDBF11E0BE
:1000C000A0E0B1E0EAEAFEE102C005900D92A2389C
:1000D000B107D9F723E0A2E8B1E001C01D92A53035
:1000E000B207E1F710E0C8E5D0E004C02197FE01B7
:1000F0000E941D0EC735D107C9F70E9478090C94DC
:10010000480F0C94000008950895AF92BF92CF92CB
:10011000DF92EF92FF920F931F93CF93DF936C01C7
:100120007B018B01040F151FEB015E01AE18BF08A8
:10013000C017D10759F06991D601ED91FC9101905A
:10014000F081E02DC6010995892B79F7C501DF9172
:10015000CF911F910F91FF90EF90DF90CF90BF90C4
:10016000AF900895FC01538D448D252F30E0842FEE
:1001700090E0821B930B541710F0CF9608950197CF
:100180000895FC01918D828D981761F0A28DAE0FBC
:10019000BF2FB11D5D968C91928D9F5F9F73928F43
:1001A00090E008958FEF9FEF0895FC01918D828D6F
:1001B000981731F0828DE80FF11D858D90E008953C
:1001C0008FEF9FEF0895FC01918D228D892F90E094
:1001D000805C9F4F821B91098F739927089585E456
:1001E00092E00E94E30021E0892B09F420E0822FB5
:1001F000089580E090E0892B29F00E94EF008111A2
:100200000C9400000895FC01A48DA80FB92FB11D16
:10021000A35ABF4F2C91848D90E001968F7399273C
:10022000848FA689B7892C93A089B1898C9183701A
:1002300080648C93938D848D981306C00288F38913
:10024000E02D80818F7D80830895EF92FF920F9340
:100250001F93CF93DF93EC0181E0888F9B8D8C8D72
:1002600098131AC0E889F989808185FF15C09FB766
:10027000F894EE89FF896083E889F9898081837029
:10028000806480839FBF81E090E0DF91CF911F91D8
:100290000F91FF90EF900895F62E0B8D10E00F5FF9
:1002A0001F4F0F731127E02E8C8D8E110CC00FB6CF
:1002B00007FCFACFE889F989808185FFF5CFCE0167
:1002C0000E940301F1CFEB8DEC0FFD2FF11DE35ADE
:1002D000FF4FF0829FB7F8940B8FEA89FB898081EA
:1002E0008062CFCFCF93DF93EC01888D8823B9F064
:1002F000AA89BB89E889F9898C9185FD03C0808131
:1003000086FD0DC00FB607FCF7CF8C9185FFF2CFAD
:10031000808185FFEDCFCE010E940301E9CFDF91FF
:10032000CF91089590E0FC01E656FF4F2491FC0127
:10033000EA57FF4F3491FC01EE58FF4FE491EE2352
:10034000C9F0222339F0233001F1A8F4213019F14A
:10035000223029F1F0E0EE0FFF1FE859FF4FA59181
:10036000B4918FB7F894EC91611126C030953E237B
:100370003C938FBF08952730A9F02830C9F024306E
:1003800049F7809180008F7D03C0809180008F7736
:1003900080938000DFCF84B58F7784BDDBCF84B5B9
:1003A0008F7DFBCF8091B0008F778093B000D2CF4C
:1003B0008091B0008F7DF9CF3E2BDACF3FB7F89414
:1003C0008091EB019091EC01A091ED01B091EE01D3
:1003D00026B5A89B05C02F3F19F00196A11DB11DA0
:1003E0003FBFBA2FA92F982F8827BC01CD01620FDC
:1003F000711D811D911D42E0660F771F881F991F97
:100400004A95D1F708958F929F92AF92BF92CF9263
:10041000DF92EF92FF924B015C010E94DE016B01C3
:100420007C010E94DE016C197D098E099F09683EDE
:10043000734081059105A8F321E0821A9108A10873
:10044000B10888EEC80E83E0D81EE11CF11C8114AF
:100450009104A104B10429F7FF90EF90DF90CF90B1
:10046000BF90AF909F908F9008952091C301260F69
:100470003327331F21323105ECF420911902FC019E
:1004800090E080E0243069F082E00895A091C301FB
:100490002191AC014D555E4FA40FB52FB11D2C938A
:1004A0000196861798F38091C301680F6093C3018A
:1004B00080E0089581E008951092190281E0809310
:1004C00018021092130261E082E10E94920161E041
:1004D00083E10E949201E9EBF0E080818E7F8083CE
:1004E00080818D7F808388E48093B80085E4809349
:1004F000BC000895CF93DF9391E09093A2018823ED
:10050000B9F0C091B800D091BA008091BC008A7B4C
:100510008093BC0060E082E10E94920160E083E190
:100520000E9492010E945C02D093BA00C093B8006E
:10053000DF91CF9108950895E091200280911F02EC
:10054000E81730F4F0E0EF5DFD4F808190E0089512
:100550008FEF9FEF08959091200280911F022FEF5F
:100560003FEF981748F4E92FF0E0EF5DFD4F208151
:1005700030E09F5F90932002C901089580911F028F
:1005800090912002891B990B0895CF92DF92EF92F0
:10059000FF920F931F93CF93DF937C01CB018A01CE
:1005A00020914402222389F0EB016B01C40ED51E79
:1005B000CC15DD0569F06991D701ED91FC910190B1
:1005C000F081E02DC7010995F3CF642F0E94350219
:1005D000C801DF91CF911F910F91FF90EF90DF90B5
:1005E000CF900895CF93DF931F92CDB7DEB7698385
:1005F000209144022223F9F020914102203258F048
:1006000021E030E0FC013383228390E080E00F9012
:10061000DF91CF91089580914202E82FF0E0EE57EC
:10062000FE4F998190838F5F8093420280934102B5
:1006300081E090E0ECCF61E0CE0101960E943502AE
:10064000F7CFCF92DF92EF92FF920F931F93CF934A
:10065000DF93D091410281E0D13208F09CC0C0917B
:1006600043020E94DE016B017C018091190281111D
:100670006CC082E08093190281E0809318028FEFB2
:100680008093170210921602D0931502A2E8B1E0EF
:10069000E3EFF1E080E0D8138DC010921402809156
:1006A0001402CC0FC82BC093140280911302813026
:1006B00009F084C0109213020E94DE016B017C01DC
:1006C000809114028093BB0080911B0290911C02C8
:1006D000A0911D02B0911E02892B8A2B8B2BA1F0B9
:1006E0000E94DE0100911B0210911C0220911D024C
:1006F00030911E026C197D098E099F090617170794
:100700002807390708F442C08091BC0083FDD8CF88
:1007100085EC8093BC000E94DE016B017C0180911E
:100720001902823009F44CC0809117028F3F09F4FE
:1007300069C080911702803209F466C08091170267
:10074000803309F463C084E026C080911B0290913D
:100750001C02A0911D02B0911E02892B8A2B8B2BAB
:1007600009F483CF0E94DE0100911B0210911C024C
:1007700020911D0230911E026C197D098E099F097E
:10078000061717072807390708F06FCF80911A025C
:100790000E947A0285E01092420210924102109269
:1007A0004402DF91CF911F910F91FF90EF90DF9066
:1007B000CF9008959D9191938F5F6DCF85EEA9CFD6
:1007C00080911B0290911C02A0911D02B0911E020B
:1007D000892B8A2B8B2B09F4A2CF0E94DE0100917A
:1007E0001B0210911C0220911D0230911E026C19F7
:1007F0007D098E099F09061717072807390708F092
:100800008ECFC4CF80E0C7CF82E0C5CF83E0C3CF17
:100810001F93CF93DF93162FCEEED2E0AD85BE852A
:100820009C8521E02093440290934302109242025F
:1008300010924102ED91FC9111970190F081E02D11
:10084000682FCD0109958D859E85DC01ED91FC9188
:100850000190F081E02D612F09958D859E85DF91B6
:10086000CF911F910C94210390E080E00895DC016A
:10087000ED91FC910190F081E02D09940F931F936D
:10088000CF93DF938B01CEEED2E0AD85BE859C8504
:1008900021E020934402909343021092420210926E
:1008A000410294E0899FB00111246A5F7F4FED916E
:1008B000FC9111970190F081E02DCD01099570E038
:1008C00060E08D859E850E94370470E060E08D8534
:1008D0009E850E943704B8018D859E850E9437044D
:1008E000612F70E08D859E850E9437048D859E85E1
:1008F000DF91CF911F910F910C9421038F929F92C2
:10090000AF92BF92CF92DF92EF92FF920F931F931D
:10091000CF936B017C0120E030E040E85FE30E9470
:10092000530C87FDE1C020E030EC4AE555E4C701F7
:10093000B6010E94AB0D18163CF4C12C30ECD32E3E
:100940003AE5E32E35E4F32E6091FD027091FE024C
:100950008091FF02909100030E94F90C4B015C0111
:1009600020E030E040E855E4C701B6010E94B00D38
:100970009B01AC01C501B4010E94580C20E030E09D
:1009800040E05FE30E94E70B20E030E040E85FE3F7
:100990000E94E60B6B017C0120E030E040E450E473
:1009A0000E94530C87FDA7C020E030E04FE753E4DE
:1009B000C701B6010E94AB0D181634F4C12CD12C1E
:1009C0009FE7E92E93E4F92EC701B6010E94CA0CF5
:1009D000F62E8091FB029091FC022091FA0231E008
:1009E000309344022093430210924202109241023B
:1009F000DC01ED91FC910190F081E02D60E0099522
:100A00008091FB029091FC020E942103C091FA02A6
:100A10000E94DE014B015C0180911902811171C0BD
:100A200081E080931902809318029FEF9093170240
:100A300010921602109215028093140280911402F3
:100A4000CC0FC82BC093140280911302813009F09F
:100A5000B2C0109213020E94DE014B015C01809132
:100A600014028093BB0080911B0290911C02A09104
:100A70001D02B0911E02892B8A2B8B2BA1F00E94A4
:100A8000DE0100911B0210911C0220911D02309189
:100A90001E02681979098A099B0906171707280792
:100AA000390708F44FC08091BC0083FDD8CF85EC96
:100AB0008093BC000E94DE014B015C018091190211
:100AC000813009F47AC080911602811198C080911A
:100AD0001602E3EFF1E0A1E2B2E090E09817B9F17D
:100AE00021912D939F5FFACFC12CD12C20E8E22ECB
:100AF0002FE3F22E29CFC12CD12C80E4E82EFE2C3E
:100B000063CF80911B0290911C02A0911D02B091B5
:100B10001E02892B8A2B8B2B09F47ECF0E94DE01CB
:100B200000911B0210911C0220911D0230911E02A7
:100B3000681979098A099B090617170728073907D1
:100B400008F06ACF80911A020E947A0280E0109227
:100B5000200280931F028091FB029091FC02DC0135
:100B6000ED91FC910284F385E02D0995C82F682F43
:100B70006F76606180E00E9408046F2D8EEF0E9406
:100B800008046C2F80E00E94080465E070E080E0BB
:100B900090E00E9403026C2F606A80E0CF911F9169
:100BA0000F91FF90EF90DF90CF90BF90AF909F900C
:100BB0008F900C94080485EE7BCF80911B0290915E
:100BC0001C02A0911D02B0911E02892B8A2B8B2B37
:100BD00009F474CF0E94DE0100911B0210911C02E7
:100BE00020911D0230911E02681979098A099B091A
:100BF000061717072807390708F060CFA3CF81E051
:100C000068CFFC0101900020E9F73197AF01481B44
:100C1000590BBC0185E492E00C9485008F929F9261
:100C2000AF92BF92CF92DF92EF92FF920F931F93FA
:100C3000CF93DF93CDB7DEB7A1970FB6F894DEBFA1
:100C40000FBECDBF6C01990FEE08FF08F7FE41C043
:100C50006DE285E492E00E9425018C012227332772
:100C6000A9012C193D094E095F0919A2CE018196EF
:100C70007C019AE0892E912CA12CB12CCA01B901DA
:100C8000A50194010E94B50B605DF70162937F019D
:100C9000211531054105510589F790E080E0309735
:100CA00019F0CF010E940106800F911FA1960FB687
:100CB000F894DEBF0FBECDBFDF91CF911F910F9192
:100CC000FF90EF90DF90CF90BF90AF909F908F906C
:100CD0000895A701960119A28E010F5D1F4F8AE0AA
:100CE000C82ED12CE12CF12CCA01B901A701960123
:100CF0000E94B50B605DF80162938F0121153105EB
:100D00004105510589F790E080E0309779F2CF01F5
:100D10000E940106CBCFCF93DF930E940E06EC0119
:100D20008EE291E00E9401068C0F9D1FDF91CF9112
:100D30000895AF92BF92CF92DF92FF920F931F93CD
:100D4000CF93DF9381E391E00E9401068091F2024C
:100D50009091F3020E940E068BE391E00E9401063F
:100D60008091F0029091F1020E948B0610E000E069
:100D7000D0E0C0E08091F0029091F102C817D9074D
:100D8000A4F5E091F802F091F902E00FF11FA080C4
:100D9000B180C280D380F4808EE291E00E9401068F
:100DA00088E491E00E940106CE010E940E068EE4C6
:100DB00091E00E940106C5010E940E068AE591E0BD
:100DC0000E940106C6010E940E0687E691E00E947D
:100DD00001068F2D90E00E940E068EE291E00E94A7
:100DE000010621960B5F1F4FC5CFDF91CF911F9159
:100DF0000F91FF90DF90CF90BF90AF90089585ED59
:100E00008093BC0080911B0290911C02A0911D0256
:100E1000B0911E020796A11DB11D23E0B695A795BE
:100E2000979587952A95D1F72091BC0024FD03C0A2
:100E300010921902089540911B0250911C0260917A
:100E40001D0270911E02452B462B472B69F300971C
:100E5000A105B10541F025E32A95F1F700000197BE
:100E6000A109B109E1CF80911A020C947A021F9274
:100E70000F920FB60F9211242F933F934F935F93CE
:100E80006F937F938F939F93AF93BF93EF93FF9352
:100E900085E492E00E940301FF91EF91BF91AF9131
:100EA0009F918F917F916F915F914F913F912F9182
:100EB0000F900FBE0F901F9018951F920F920FB6B4
:100EC0000F9211242F938F939F93EF93FF93E091B1
:100ED0005502F09156028081E0915B02F0915C0234
:100EE00082FD1BC0908180915E028F5F8F73209185
:100EF0005F02821741F0E0915E02F0E0EB5BFD4F94
:100F0000958F80935E02FF91EF919F918F912F912A
:100F10000F900FBE0F901F9018958081F4CF1F92F5
:100F20000F920FB60F9211242F933F938F939F939D
:100F3000AF93BF938091E7019091E801A091E901FF
:100F4000B091EA013091E60123E0230F2D3758F5E7
:100F50000196A11DB11D2093E6018093E7019093B6
:100F6000E801A093E901B093EA018091EB0190912F
:100F7000EC01A091ED01B091EE010196A11DB11D12
:100F80008093EB019093EC01A093ED01B093EE01FF
:100F9000BF91AF919F918F913F912F910F900FBE75
:100FA0000F901F90189526E8230F0296A11DB11DE2
:100FB000D2CF1F920F920FB60F9211242F933F930F
:100FC0004F935F936F937F938F939F93AF93BF9351
:100FD000EF93FF938091B900887F803609F44AC06F
:100FE000F0F5883209F4A7C018F5803109F49BC0E8
:100FF000B8F4882309F4F9C0883009F494C0FF914B
:10100000EF91BF91AF919F918F917F916F915F9180
:101010004F913F912F910F900FBE0F901F901895F9
:10102000883109F488C0803251F78093170214C0C8
:10103000803409F49DC040F48033B9F38833F9F665
:101040008093170285ECB0C0803509F485C08835DF
:1010500009F496C0883499F60E94FF06D0CF8839EB
:1010600009F48CC038F5883729F050F4883611F02F
:10107000803729F683E0809319021092E50157C06A
:10108000883809F47BC0803919F0803809F0B7CF6F
:101090008091E501803208F071C0E091E50181E0C6
:1010A0008E0F8093E5018091BB00F0E0EB53FE4F83
:1010B00080833DC0803B39F0E0F4803A09F479C088
:1010C000883A09F09CCF84E0809319021092C40101
:1010D0001092C301E091F101F091F2010995809124
:1010E000C30181110FC081E08093C3011092A3015D
:1010F00009C0803C09F4A6CF883C09F4A3CF883B03
:1011000009F07DCFE091C40181E08E0F8093C4018E
:10111000F0E0ED55FE4F80818093BB009091C401BB
:101120008091C30129C0809114028093BB0085EC9B
:101130008093BC0064CF909116028091150298179D
:1011400058F5E091160281E08E0F80931602F0E0D0
:10115000ED50FE4F8081E9CFE091160281E08E0FC5
:10116000809316028091BB00F0E0ED50FE4F80832B
:1011700090911602809115029817C8F285E8D8CF91
:10118000E091160281E08E0F809316028091BB00E1
:10119000F0E0ED50FE4F80838091180281115CCF0A
:1011A00081E08093130284EA8093BC0010921902BC
:1011B00026CF85EC8093BC00109219028091E50146
:1011C000803230F4E091E501F0E0EB53FE4F108205
:1011D0006091E50170E0E091EF01F091F00185ECA4
:1011E00091E009951092E5010ACF1092170234CFD1
:1011F000109248021092470288EE93E0A0E0B0E01F
:101200008093490290934A02A0934B02B0934C0200
:101210002EE031E0309346022093450225EC30E089
:10122000309352022093510224EC30E03093540268
:101230002093530220EC30E0309356022093550265
:1012400021EC30E0309358022093570222EC30E03A
:1012500030935A022093590226EC30E030935C021E
:1012600020935B0210925E0210925F021092600265
:10127000109261021092E5021092E4028093E6025D
:101280009093E702A093E802B093E90280E291E034
:101290009093E3028093E20280E48093FA0282EE6C
:1012A00092E09093FC028093FB021092F70210925E
:1012B000F60280E190E09093F1028093F00280E5E5
:1012C00090E00E94230E8093F8029093F902FC01B3
:1012D000805B9F4F48EE53E020ED37E05183408321
:1012E0003383228314823596E817F907B9F70895F6
:1012F000CF93DF9300D000D01F92CDB7DEB77894A4
:1013000084B5826084BD84B5816084BD85B582600A
:1013100085BD85B5816085BD80916E0081608093BB
:101320006E00109281008091810082608093810024
:101330008091810081608093810080918000816034
:10134000809380008091B10084608093B10080918F
:10135000B00081608093B00080917A0084608093B7
:101360007A0080917A00826080937A0080917A007E
:10137000816080937A0080917A00806880937A00FF
:101380001092C100E0915502F091560282E08083F4
:10139000E0915102F09152021082E0915302F091DB
:1013A00054028FEC808310925D02E0915902F0911B
:1013B0005A0286E08083E0915702F09158028081C2
:1013C00080618083E0915702F091580280818860AB
:1013D0008083E0915702F091580280818068808379
:1013E000E0915702F091580280818F7D808380E4E4
:1013F00090E09093F3028093F20282E390E0909366
:10140000F5028093F4021092F7021092F602109205
:10141000200210921F0210924202109241020E947A
:101420005C0283E890E09093F2018093F10184E8FC
:1014300090E09093F0018093EF0160E880E00E94DB
:1014400008046AE070E080E090E00E94030260E03F
:1014500070E08AE794E40E947E0480E498E7ADE7B8
:10146000B1E08093FD029093FE02A093FF02B0933F
:1014700000038091F2028093FA0282EE92E0909350
:10148000FC028093FB026091F4027091F502072E3A
:10149000000C880B990B0E94FB0C0E947E04E091CB
:1014A000F802F091F902CF01805B9F4F44E650E0D3
:1014B00020E931E0518340833383228335968E17B0
:1014C0009F07C1F780E1482E512C612C712C15E04B
:1014D00001E090E0A92E90E0B92E0E942B0BA30111
:1014E00092010E94830B6B0180E791E00E9401064C
:1014F00080E190E00E948B0689E791E00E9401065E
:10150000C6010E948B061C9D40011D9D900C11245C
:10151000E091F802F091F902E80DF91D0483DE0173
:101520001196812F01900D928A95E1F78091F60234
:101530009091F702892B29F069817A818C2D0E9484
:101540003E040E94990660ED77E080E090E00E9402
:101550000302E091F802F091F902E80DF91D1482FE
:1015600085E0DE01119601900D928A95E1F7809158
:10157000F6029091F702892B29F06B817C818C2DEA
:101580000E943E040E94990660ED77E080E090E0C2
:101590000E940302A114B10409F49FCF0E94EF003E
:1015A000882309F49ACF0E94000097CF8091F80217
:1015B0009091F902009711F00C94BF0E08958F924C
:1015C0009F92AF92BF92CF92DF92EF92FF92CF9312
:1015D000DF93EC01688179818A819B8161157105B6
:1015E0008105910521F464E279ED8BE597E02DE129
:1015F00033EF41E050E00E94830B49015A019B0107
:10160000AC01A7EAB1E40E94A20B6B017C01ACEE35
:10161000B4EFA50194010E94B00BC60ED71EE81EC0
:10162000F91EF7FE06C081E0C81AD108E10880E87B
:10163000F80AC882D982EA82FB82C701B6019F7785
:10164000DF91CF91FF90EF90DF90CF90BF90AF9060
:101650009F908F9008958F929F92AF92BF92CF925A
:10166000DF92EF92FF9260910001709101018091F1
:10167000020190910301611571058105910521F425
:1016800064E279ED8BE597E02DE133EF41E050E046
:101690000E94830B49015A019B01AC01A7EAB1E406
:1016A0000E94A20B6B017C01ACEEB4EFA50194018A
:1016B0000E94B00BC60ED71EE81EF91EF7FE06C02C
:1016C00081E0C81AD108E10880E8F80AC092000158
:1016D000D0920101E0920201F0920301C701B6012C
:1016E0009F77FF90EF90DF90CF90BF90AF909F904B
:1016F0008F9008956093000170930101809302011F
:10170000909303010895052E97FB1EF400940E9408
:101710009A0B57FD07D00E94B50B07FC03D04EF47F
:101720000C949A0B50954095309521953F4F4F4F13
:101730005F4F089590958095709561957F4F8F4F7D
:101740009F4F08950E94D70BA59F900DB49F900DB9
:10175000A49F800D911D11240895B7FF0C94A20B36
:101760000E94A20B821B930B0895A1E21A2EAA1BC2
:10177000BB1BFD010DC0AA1FBB1FEE1FFF1FA21741
:10178000B307E407F50720F0A21BB30BE40BF50B3E
:10179000661F771F881F991F1A9469F760957095C7
:1017A000809590959B01AC01BD01CF010895A29F4A
:1017B000B001B39FC001A39F700D811D1124911D25
:1017C000B29F700D811D1124911D08955058BB27A3
:1017D000AA270E94FE0B0C94710D0E94630D38F035
:1017E0000E946A0D20F039F49F3F19F426F40C94FE
:1017F000600D0EF4E095E7FB0C945A0DE92F0E9462
:10180000820D58F3BA17620773078407950720F013
:1018100079F4A6F50C94A40D0EF4E0950B2EBA2FD6
:10182000A02D0B01B90190010C01CA01A0011124E6
:10183000FF27591B99F0593F50F4503E68F11A1692
:10184000F040A22F232F342F4427585FF3CF469523
:1018500037952795A795F0405395C9F77EF41F1645
:10186000BA0B620B730B840BBAF09150A1F0FF0F0F
:10187000BB1F661F771F881FC2F70EC0BA0F621FFB
:10188000731F841F48F4879577956795B795F795EB
:101890009E3F08F0B0CF9395880F08F09927EE0F80
:1018A0009795879508950E94360D08F481E0089574
:1018B0000E946C0C0C94710D0E946A0D58F00E94ED
:1018C000630D40F029F45F3F29F00C945A0D51113B
:1018D0000C94A50D0C94600D0E94820D68F3992361
:1018E000B1F3552391F3951B550BBB27AA2762171C
:1018F0007307840738F09F5F5F4F220F331F441F29
:10190000AA1FA9F335D00E2E3AF0E0E832D091505C
:101910005040E695001CCAF72BD0FE2F29D0660F49
:10192000771F881FBB1F261737074807AB07B0E88C
:1019300009F0BB0B802DBF01FF2793585F4F3AF092
:101940009E3F510578F00C945A0D0C94A50D5F3F05
:10195000E4F3983ED4F3869577956795B795F79518
:101960009F5FC9F7880F911D9695879597F9089500
:10197000E1E0660F771F881FBB1F6217730784079C
:10198000BA0720F0621B730B840BBA0BEE1F88F7AB
:10199000E09508950E948A0D88F09F5798F0B92F1E
:1019A0009927B751B0F0E1F0660F771F881F991F94
:1019B0001AF0BA95C9F714C0B13091F00E94A40D85
:1019C000B1E008950C94A40D672F782F8827B85F95
:1019D00039F0B93FCCF3869577956795B395D9F7EC
:1019E0003EF490958095709561957F4F8F4F9F4FF6
:1019F0000895E89409C097FB3EF490958095709502
:101A000061957F4F8F4F9F4F9923A9F0F92F96E94A
:101A1000BB279395F695879577956795B795F111BF
:101A2000F8CFFAF4BB0F11F460FF1BC06F5F7F4F5C
:101A30008F4F9F4F16C0882311F096E911C077236E
:101A400021F09EE8872F762F05C0662371F096E877
:101A5000862F70E060E02AF09A95660F771F881F46
:101A6000DAF7880F9695879597F90895990F0008EA
:101A7000550FAA0BE0E8FEEF16161706E807F90760
:101A8000C0F012161306E407F50798F0621B730BFB
:101A9000840B950B39F40A2661F0232B242B252B7C
:101AA00021F408950A2609F4A140A6958FEF811D1F
:101AB000811D089597F99F6780E870E060E00895C0
:101AC0009FEF80EC089500240A9416161706180656
:101AD0000906089500240A94121613061406050632
:101AE0000895092E0394000C11F4882352F0BB0FC3
:101AF00040F4BF2B11F460FF04C06F5F7F4F8F4F26
:101B00009F4F089557FD9058440F551F59F05F3F60
:101B100071F04795880F97FB991F61F09F3F79F00F
:101B200087950895121613061406551FF2CF469591
:101B3000F1DF08C0161617061806991FF1CF869513
:101B40007105610508940895E894BB2766277727F7
:101B5000CB0197F908950E94360D08F48FEF089590
:101B60000E94C30D0C94710D0E94630D38F00E9409
:101B70006A0D20F0952311F00C945A0D0C94600D11
:101B800011240C94A50D0E94820D70F3959FC1F352
:101B9000950F50E0551F629FF001729FBB27F00D1B
:101BA000B11D639FAA27F00DB11DAA1F649F662770
:101BB000B00DA11D661F829F2227B00DA11D621FBF
:101BC000739FB00DA11D621F839FA00D611D221F79
:101BD000749F3327A00D611D231F849F600D211D5D
:101BE000822F762F6A2F11249F5750409AF0F1F0E0
:101BF00088234AF0EE0FFF1FBB1F661F771F881F49
:101C000091505040A9F79E3F510580F00C945A0D19
:101C10000C94A50D5F3FE4F3983ED4F38695779539
:101C20006795B795F795E7959F5FC1F7FE2B880FEE
:101C3000911D9695879597F90895EE0FFF1F0590D2
:101C4000F491E02D09940F931F93CF93DF9382308B
:101C5000910510F482E090E0E0910303F091040319
:101C600030E020E0B0E0A0E0309799F42115310594
:101C700009F44AC0281B390B24303105D8F58A8174
:101C80009B816115710589F1FB0193838283FE01BC
:101C900011C0408151810281138148175907E0F03A
:101CA0004817590799F4109761F012960C93129700
:101CB00013961C933296CF01DF91CF911F910F9114
:101CC00008950093030310930403F4CF2115310505
:101CD00051F04217530738F0A901DB019A01BD0109
:101CE000DF01F801C1CFEF01F9CF90930403809396
:101CF0000303CDCFFE01E20FF31F81939193225096
:101D0000310939832883D7CF209101033091020311
:101D1000232B41F4209106013091070130930203F7
:101D20002093010320910401309105012115310513
:101D300041F42DB73EB74091080150910901241B91
:101D4000350BE0910103F0910203E217F307A0F4D1
:101D50002E1B3F0B2817390778F0AC014E5F5F4F01
:101D60002417350748F04E0F5F1F5093020340932E
:101D70000103819391939FCFF0E0E0E09CCFCF935C
:101D8000DF930097E9F0FC01329713821282A09151
:101D90000303B0910403ED0130E020E01097A1F4BB
:101DA00020813181820F931F209101033091020322
:101DB0002817390709F061C0F0930203E09301038B
:101DC000DF91CF910895EA01CE17DF07E8F54A8148
:101DD0005B819E0141155105B1F7E901FB83EA835F
:101DE00049915991C40FD51FEC17FD0761F480810B
:101DF00091810296840F951FE901998388838281DE
:101E000093819B838A83F0E0E0E012968D919C9110
:101E100013970097B9F52D913C911197CD0102963A
:101E2000820F931F20910103309102032817390775
:101E300039F6309751F51092040310920303B093D2
:101E40000203A0930103BCCFD383C283408151819D
:101E5000840F951FC817D90761F44E5F5F4F8881C3
:101E60009981480F591F518340838A819B819383B5
:101E700082832115310509F0B0CFF0930403E0937C
:101E800003039ECFFD01DC01C0CF13821282D7CFA6
:101E900010E0C8E5D0E004C0FE010E941D0E2196AE
:101EA000C935D107C9F7F894FFCF01000000000041
:101EB000050380000000000025018500B2007201CA
:101EC000E300C100D50000000000F202C5023404A6
:101ED0009B02BE02AB029C020D0A00426F6172645B
:101EE000204E6F200020746F74616C2070696E73D7
:101EF00020002050696E2000206F70656E53746161
:101F00007465200020636C6F736553746174652081
:101F1000002069734F70656E20004D415820504974
:0C1F20004E200050494E204E4F20000083
:107E0000112484B714BE81FFF0D085E080938100F7
:107E100082E08093C00088E18093C10086E0809377
:107E2000C20080E18093C4008EE0C9D0259A86E02C
:107E300020E33CEF91E0309385002093840096BBD3
:107E4000B09BFECF1D9AA8958150A9F7CC24DD24C4
:107E500088248394B5E0AB2EA1E19A2EF3E0BF2EE7
:107E6000A2D0813461F49FD0082FAFD0023811F036
:107E7000013811F484E001C083E08DD089C08234E0
:107E800011F484E103C0853419F485E0A6D080C0E4
:107E9000853579F488D0E82EFF2485D0082F10E0AE
:107EA000102F00270E291F29000F111F8ED06801E7
:107EB0006FC0863521F484E090D080E0DECF843638
:107EC00009F040C070D06FD0082F6DD080E0C81688
:107ED00080E7D80618F4F601B7BEE895C0E0D1E017
:107EE00062D089930C17E1F7F0E0CF16F0E7DF06D8
:107EF00018F0F601B7BEE89568D007B600FCFDCFD4
:107F0000A601A0E0B1E02C9130E011968C91119780
:107F100090E0982F8827822B932B1296FA010C0160
:107F200087BEE89511244E5F5F4FF1E0A038BF0790
:107F300051F7F601A7BEE89507B600FCFDCF97BE46
:107F4000E89526C08437B1F42ED02DD0F82E2BD052
:107F50003CD0F601EF2C8F010F5F1F4F84911BD097
:107F6000EA94F801C1F70894C11CD11CFA94CF0C13
:107F7000D11C0EC0853739F428D08EE10CD085E9AC
:107F80000AD08FE07ACF813511F488E018D01DD067
:107F900080E101D065CF982F8091C00085FFFCCF94
:107FA0009093C60008958091C00087FFFCCF809118
:107FB000C00084FD01C0A8958091C6000895E0E648
:107FC000F0E098E1908380830895EDDF803219F02E
:107FD00088E0F5DFFFCF84E1DECF1F93182FE3DFCA
:107FE0001150E9F7F2DF1F91089580E0E8DFEE27F6
:047FF000FF270994CA
:027FFE00040479
:00000001FF
