:100000000C9458000C9480000C9480000C94800098
:100010000C9480000C9480000C9480000C94800060
:100020000C9480000C9480000C9480000C94800050
:100030000C9480000C9480000C9480000C94800040
:100040000C94AB030C9480000C9479030C94530330
:100050000C9480000C9480000C9480000C94800020
:100060000C94F5030C94800000000000250028008B
:100070002B00040404040404040402020202020229
:10008000030303030303010204081020408001025C
:1000900004081020010204081020000000080002DB
:1000A000010000030407000000000000000010052C
:1000B00011241FBECFEFD8E0DEBFCDBF11E0A0E01E
:1000C000B1E0E0ECF0E102C005900D92AC3DB1076B
:1000D000D9F722E0ACEDB1E001C01D92A93FB20713
:1000E000E1F710E0C8E5D0E004C02197FE010E94CE
:1000F0003307C735D107C9F70E943D050C945E0848
:100100000C940000AF92BF92CF92DF92EF92FF92D9
:100110000F931F93CF93DF936C017B018B01040F2F
:10012000151FEB015E01AE18BF08C017D10759F0CB
:100130006991D601ED91FC910190F081E02DC6010D
:100140000995892B79F7C501DF91CF911F910F9107
:10015000FF90EF90DF90CF90BF90AF900895FC019B
:10016000538D448D252F30E0842F90E0821B930B1C
:10017000541710F0CF96089501970895FC01918DC2
:10018000828D981761F0A28DAE0FBF2FB11D5D96C5
:100190008C91928D9F5F9F73928F90E008958FEF67
:1001A0009FEF0895FC01918D828D981731F0828D1B
:1001B000E80FF11D858D90E008958FEF9FEF089572
:1001C000FC01918D228D892F90E0805C9F4F821BD6
:1001D00091098F739927089588E592E00E94E000C5
:1001E00021E0892B09F420E0822F089580E090E03F
:1001F000892B29F00E94EC0081110C9400000895D5
:10020000FC01A48DA80FB92FB11DA35ABF4F2C918B
:10021000848D90E001968F739927848FA689B78982
:100220002C93A089B1898C91837080648C93938D79
:10023000848D981306C00288F389E02D80818F7D1C
:1002400080830895EF92FF920F931F93CF93DF93D4
:10025000EC0181E0888F9B8D8C8D98131AC0E88902
:10026000F989808185FF15C09FB7F894EE89FF89D1
:100270006083E889F98980818370806480839FBF6F
:1002800081E090E0DF91CF911F910F91FF90EF906F
:100290000895F62E0B8D10E00F5F1F4F0F7311277F
:1002A000E02E8C8D8E110CC00FB607FCFACFE889BA
:1002B000F989808185FFF5CFCE010E940001F1CF41
:1002C000EB8DEC0FFD2FF11DE35AFF4FF0829FB72E
:1002D000F8940B8FEA89FB8980818062CFCFCF931E
:1002E000DF93EC01888D8823B9F0AA89BB89E8895E
:1002F000F9898C9185FD03C0808186FD0DC00FB604
:1003000007FCF7CF8C9185FFF2CF808185FFEDCF81
:10031000CE010E940001E9CFDF91CF91089590E0D6
:10032000FC01E656FF4F2491FC01EA57FF4F349140
:10033000FC01EE58FF4FE491EE23C9F0222339F07F
:10034000233001F1A8F4213019F1223029F1F0E035
:10035000EE0FFF1FE859FF4FA591B4918FB7F894A6
:10036000EC91611126C030953E233C938FBF0895D8
:100370002730A9F02830C9F0243049F78091800057
:100380008F7D03C0809180008F7780938000DFCFC6
:1003900084B58F7784BDDBCF84B58F7DFBCF809113
:1003A000B0008F778093B000D2CF8091B0008F7D66
:1003B000F9CF3E2BDACF3FB7F8948091520290915B
:1003C0005302A0915402B091550226B5A89B05C0D6
:1003D0002F3F19F00196A11DB11D3FBFBA2FA92FC4
:1003E000982F8827BC01CD01620F711D811D911DC1
:1003F00042E0660F771F881F991F4A95D1F708952D
:1004000020910302260F3327331F21323105ECF4EC
:1004100020912702FC0190E080E0243069F082E026
:100420000895A09103022191AC014D515E4FA40F9C
:10043000B52FB11D2C930196861798F38091030276
:10044000680F6093030280E0089581E008950895A5
:100450008FEF9FEF08958FEF9FEF08958091DC015C
:1004600090E09195819591090895CF93DF93CB0109
:10047000EA01642F0E940002CE01DF91CF9108951E
:10048000CF93DF931F92CDB7DEB7698361E0CE01D2
:1004900001960E94000281E090E00F90DF91CF91E1
:1004A000089590E080E00895FC0101900020E9F7B4
:1004B0003197AF01481B590BBC0188E592E00C94C1
:1004C00082008F929F92AF92BF92CF92DF92EF9273
:1004D000FF920F931F93CF93DF93CDB7DEB7A19712
:1004E0000FB6F894DEBF0FBECDBF6C01990FEE08BA
:1004F000FF08F7FE41C06DE288E592E00E9422010C
:100500008C0122273327A9012C193D094E095F09C7
:1005100019A2CE0181967C019AE0892E912CA12C02
:10052000B12CCA01B901A50194010E941107605DB7
:10053000F70162937F01211531054105510589F7C6
:1005400090E080E0309719F0CF010E945402800FB4
:10055000911FA1960FB6F894DEBF0FBECDBFDF91FD
:10056000CF911F910F91FF90EF90DF90CF90BF90B0
:10057000AF909F908F900895A701960119A28E01C8
:100580000F5D1F4F8AE0C82ED12CE12CF12CCA013F
:10059000B901A70196010E941107605DF8016293FD
:1005A0008F01211531054105510589F790E080E063
:1005B000309779F2CF010E945402CBCF1F93CF9393
:1005C000DF9385ED8093BC008091DF019091E00185
:1005D000A091E101B091E2010796A11DB11D23E0B8
:1005E000B695A795979587952A95D1F72091BC0048
:1005F00024FD03C01092270252C04091DF015091A8
:10060000E0016091E1017091E201452B462B472BFF
:1006100069F30097A105B10541F025E32A95F1F7AB
:1006200000000197A109B109E1CF8091DE01C1E08D
:10063000C093DD01882399F1D091B8001091BA00E0
:100640008091BC008A7B8093BC0060E082E10E94C4
:100650008F0160E083E10E948F0110922702C09316
:1006600029021092280261E082E10E948F0161E07C
:1006700083E10E948F018091B9008E7F8093B90041
:100680008091B9008D7F8093B90088E48093B80091
:1006900085E48093BC001093BA00D093B800DF913A
:1006A000CF911F9108951F920F920FB60F921124B0
:1006B0002F933F934F935F936F937F938F939F936A
:1006C000AF93BF93EF93FF9388E592E00E94000100
:1006D000FF91EF91BF91AF919F918F917F916F911A
:1006E0005F914F913F912F910F900FBE0F901F90F0
:1006F00018951F920F920FB60F9211242F938F937C
:100700009F93EF93FF93E0916802F09169028081DB
:10071000E0916E02F0916F0282FD1BC0908180918A
:1007200071028F5F8F7320917202821741F0E09106
:100730007102F0E0E85AFD4F958F80937102FF91AE
:10074000EF919F918F912F910F900FBE0F901F905F
:1007500018958081F4CF1F920F920FB60F9211243B
:100760002F933F938F939F93AF93BF9380914E02AC
:1007700090914F02A0915002B091510230914D02E0
:1007800023E0230F2D3758F50196A11DB11D2093AD
:100790004D0280934E0290934F02A0935002B0936B
:1007A00051028091520290915302A0915402B09153
:1007B00055020196A11DB11D8093520290935302E0
:1007C000A0935402B0935502BF91AF919F918F9126
:1007D0003F912F910F900FBE0F901F90189526E814
:1007E000230F0296A11DB11DD2CF1F920F920FB6FB
:1007F0000F9211242F933F934F935F936F937F93A7
:100800008F939F93AF93BF93EF93FF938091B90022
:10081000887F803609F44AC0F0F5883209F4A5C013
:1008200018F5803109F499C0B8F4882309F4F5C0AB
:10083000883009F492C0FF91EF91BF91AF919F91E1
:100840008F917F916F915F914F913F912F910F9079
:100850000FBE0F901F901895883109F486C0803222
:1008600051F78093260214C0803409F49BC040F4F1
:100870008033B9F38833F9F68093260285ECAEC055
:10088000803509F483C0883509F494C0883499F61A
:100890000E94DE02D0CF883909F48AC038F5883743
:1008A00029F050F4883611F0803729F683E08093E0
:1008B00027021092250255C0883809F479C0803982
:1008C00019F0803809F0B7CF80912502803208F006
:1008D0006FC0E091250281E08E0F80932502809108
:1008E000BB00F0E0EB5FFD4F80833BC0803B39F005
:1008F000D0F4803A09F477C0883A09F09CCF84E0BC
:10090000809327021092040210920302F0E0E0E0CC
:1009100009958091030281110FC081E08093030249
:100920001092E30109C0803C09F4A8CF883C09F487
:10093000A5CF883B09F07FCFE091040281E08E0FC4
:1009400080930402F0E0ED51FE4F80818093BB0064
:10095000909104028091030229C080914C028093FF
:10096000BB0085EC8093BC0066CF90914B028091D8
:100970004A02981758F5E0914B0281E08E0F809360
:100980004B02F0E0E65DFD4F8081E9CFE0914B0244
:1009900081E08E0F80934B028091BB00F0E0E65D1A
:1009A000FD4F808390914B0280914A029817C8F2C4
:1009B00085E8D8CFE0914B0281E08E0F80934B0207
:1009C0008091BB00F0E0E65DFD4F808380912902BD
:1009D00081115ECF81E08093280284EA8093BC007D
:1009E0001092270228CF85EC8093BC00109227023A
:1009F00080912502803230F4E0912502F0E0EB5F37
:100A0000FD4F10826091250270E085E092E0F0E0F9
:100A1000E0E00995109225020ECF1092260238CF01
:100A2000E8E5F2E01382128288EE93E0A0E0B0E005
:100A300084839583A683B7838AE891E0918380833A
:100A400085EC90E09587848784EC90E09787868793
:100A500080EC90E0918B808B81EC90E0938B828B8B
:100A600082EC90E0958B848B86EC90E0978B868B64
:100A7000118E128E138E148E0895CF93DF93CDB7FF
:100A8000DEB7C758D1090FB6F894DEBF0FBECDBF91
:100A9000789484B5826084BD84B5816084BD85B559
:100AA000826085BD85B5816085BD80916E00816065
:100AB00080936E001092810080918100826080930B
:100AC000810080918100816080938100809180000D
:100AD0008160809380008091B10084608093B10038
:100AE0008091B00081608093B00080917A00846032
:100AF00080937A0080917A00826080937A0080915E
:100B00007A00816080937A0080917A008068809377
:100B10007A001092C100E0916802F091690282E0CF
:100B20008083E0916402F09165021082E091660298
:100B3000F09167028FEC808310927002E0916C025A
:100B4000F0916D0286E08083E0916A02F0916B0281
:100B5000808180618083E0916A02F0916B028081E4
:100B600088608083E0916A02F0916B0280818068E6
:100B70008083E0916A02F0916B0280818F7D808397
:100B800080E8E6E0F1E09E012F5F3F4F5901D90177
:100B900001900D928A95E1F762E0E62EF12CCF5795
:100BA000DF4FF982E882C158D04082E190E00E9494
:100BB00039076C01DC01ED92FD928D017D011C0174
:100BC000B2E12B0E311C70E1472E512CE8EE6E2E57
:100BD000E3E07E2EF0ED8F2EF7E09F2EF70153829B
:100BE000428280E590E00E943907D70116968C93E7
:100BF000169717969C93FC01805B9F4F71826082D1
:100C000093828282148235968E179F07B9F7B8E0D7
:100C1000EB0EF11CE214F30409F7CD57DF4F1983F3
:100C20000883C358D04089819A81F60197838683CF
:100C30008B819C8197878687B0925702A09256023B
:100C40000115110509F18081918153E0880F991FE9
:100C50005A95E1F7080F191FCD57DF4F8881998109
:100C6000C358D0408017910759F008501109D80196
:100C700016968D919C91009779F30E94D507ECCF41
:100C8000C80102970E94D50740E0442E40E0542E50
:100C90000E94DB014B015C0138EEC32E33E0D32E02
:100CA000E12CF12C0E94DB01681979098A099B0962
:100CB000683E734081059105A8F3B1E0CB1AD108D5
:100CC000E108F108E8EE8E0EE3E09E1EA11CB11CC7
:100CD000C114D104E104F10429F7809156029091E6
:100CE0005702F12CE12C1C0120E8220E311CDC0102
:100CF000AE57BF4FCA57DF4FB983A883C658D040FD
:100D0000F10180819181E816F9060CF07EC0CA5786
:100D1000DF4FA881B981C658D0400D911C91C70101
:100D200023E0880F991F2A95E1F7080F191F88E91A
:100D300091E00E945402F801848195810E94610231
:100D400082EA91E00E945402D80112968D919C9102
:100D50000E9461028FEA91E00E945402B12CA12C02
:100D6000D12CC12CF80182819381C816D9060CF0D0
:100D700040C00680F781E02DEA0DFB1D8080918048
:100D8000628073802481CB57DF4F2883C558D040C1
:100D90008FEA91E00E94540282EB91E00E9454029B
:100DA000C6010E94610288EB91E00E945402C401D6
:100DB0000E94610284EC91E00E945402C3010E94EF
:100DC000610281ED91E00E945402CB57DF4F3881E0
:100DD000C558D040832F90E00E9461028FEA91E0D5
:100DE0000E9454028FEFC81AD80AA5E0AA0EB11CBF
:100DF000B9CF8AED91E00E9454028FEA91E00E94FF
:100E00005402BFEFEB1AFB0A7BCF4114510409F4E3
:100E10003FCF0E94EC00882309F43ACF0E940000E3
:100E200037CFA1E21A2EAA1BBB1BFD010DC0AA1FC2
:100E3000BB1FEE1FFF1FA217B307E407F50720F043
:100E4000A21BB30BE40BF50B661F771F881F991FBE
:100E50001A9469F760957095809590959B01AC0107
:100E6000BD01CF010895EE0FFF1F0590F491E02D15
:100E700009940F931F93CF93DF938230910510F461
:100E800082E090E0E091F702F091F80230E020E09B
:100E9000B0E0A0E0309799F42115310509F44AC07B
:100EA000281B390B24303105D8F58A819B816115C7
:100EB000710589F1FB0193838283FE0111C040819A
:100EC00051810281138148175907E0F048175907EB
:100ED00099F4109761F012960C93129713961C9345
:100EE0003296CF01DF91CF911F910F91089500931A
:100EF000F7021093F802F4CF2115310551F0421793
:100F0000530738F0A901DB019A01BD01DF01F801A7
:100F1000C1CFEF01F9CF9093F8028093F702CDCFC4
:100F2000FE01E20FF31F819391932250310939831F
:100F30002883D7CF2091F5023091F602232B41F47C
:100F400020910201309103013093F6022093F502C3
:100F500020910001309101012115310541F42DB797
:100F60003EB74091040150910501241B350BE091DF
:100F7000F502F091F602E217F307A0F42E1B3F0BE7
:100F80002817390778F0AC014E5F5F4F24173507FB
:100F900048F04E0F5F1F5093F6024093F502819385
:100FA00091939FCFF0E0E0E09CCFCF93DF93009749
:100FB000E9F0FC01329713821282A091F702B091FE
:100FC000F802ED0130E020E01097A1F4208131819A
:100FD000820F931F2091F5023091F60228173907EE
:100FE00009F061C0F093F602E093F502DF91CF9132
:100FF0000895EA01CE17DF07E8F54A815B819E017B
:1010000041155105B1F7E901FB83EA8349915991F3
:10101000C40FD51FEC17FD0761F480819181029602
:10102000840F951FE90199838883828193819B8333
:101030008A83F0E0E0E012968D919C9113970097DF
:10104000B9F52D913C911197CD010296820F931F16
:101050002091F5023091F6022817390739F63097BA
:1010600051F51092F8021092F702B093F602A09395
:10107000F502BCCFD383C28340815181840F951F79
:10108000C817D90761F44E5F5F4F88819981480F77
:10109000591F518340838A819B81938382832115C9
:1010A000310509F0B0CFF093F802E093F7029ECF3C
:1010B000FD01DC01C0CF13821282D7CFF894FFCF9D
:1010C0000000F9028000400041004200430044005B
:1010D000450046004700480049004A004B004C00CC
:1010E0004D004E004F00500051005200530054007C
:1010F000550056005700580059005A005B005C002C
:101100005D005E005F0060006100620063006400DB
:10111000650066006700680069006A006B006C008B
:101120006D006E006F00700071007200730074003B
:10113000750076007700780079007A007B007C00EB
:101140007D007E007F000000000022018200AF00D1
:101150006F01E000BE00D200426F617264204E6FEA
:10116000200020746F74616C2070696E7320000D14
:101170000A002050696E2000206F70656E53746104
:101180007465200020636C6F73655374617465200F
:0C119000002069734F70656E20002D0078
:00000001FF
